:1000000042EF07F068961200046ED8CF05F0E0CFFB
:1000100006F00001E9CF0CF0EACF07F0E1CF08F0DD
:10002000E2CF09F0D9CF0AF0DACF0BF0F3CF12F01C
:10003000F4CF13F0FACF14F000C00EF001C00FF0AF
:1000400002C010F003C011F0A0AA2AEF00F0A1BA7C
:10005000D4EF05F00EC000F00FC001F010C002F0A8
:1000600011C003F00CC0E9FF07C0EAFF078E08C00B
:10007000E1FF09C0E2FF0AC0D9FF0BC0DAFF12C0DE
:10008000F3FF13C0F4FF14C0FAFF045006C0E0FFF2
:1000900005C0D8FF1000F76AA60FF66E000EF72213
:1000A0000900F55012000002FFFFFFFFFFFFFFFFF6
:1000B000FFFFFFFFFFFFF76AC60FF66E000EF72285
:1000C0000900F5501200400001000000000000008F
:1000D0000000000000000000000000000000000020
:1000E00000000000000007AE03D0F2CF0DF0F29E3A
:1000F000F76A080FF66E010EF7220900F55007AEF9
:1001000002D00DBEF28E120040000300000000007D
:1001100000000000000000000000000000000000DF
:100120000000000000000000F76A380FF66E010EB4
:10013000F7220900F550120009022000010100C059
:10014000320904000002FFFFFF00070581020100E1
:100150000107050102030001F76A680FF66E010E40
:10016000F7220900F55012000100F76A7A0FF66EC7
:10017000010EF7220900F5501200120110010000D3
:100180000040D8041100010001020001F76A9C0F31
:10019000F66E010EF7220900F550120000040C0063
:1001A000F76AB00FF66E010EF7220900F550120043
:1001B0000403090408034E005100480018035500C9
:1001C0005300420020004E00490043004F004C0005
:1001D000410053006D92699468A402D06894FCD7E2
:1001E000E0EF05F0400E0401016F040E036F100EE6
:1001F000026F880E006F046B040E076F500E066FBF
:100200000001120070A002D0EDDF7090689AE7EF55
:1002100005F06A6A6892ECEF05F0489047BE4880A6
:10022000479E4750100803E2000E016E20D048A000
:1002300010D0036A4750F2CF49F0F29E2CDF49BE3E
:10024000F28EFF0802E1000E01D0010E016E0FD008
:100250000ED0036A4750F2CF49F0F29E1CDF49BE30
:10026000F28EFF0802E1000E01D0010E016E1200B5
:10027000036A4650700FE96E0F0E0320EA6EEF6AB4
:1002800046C047F0CADF015218E04650080DF3504F
:10029000486AE96E040E4824EA6EEF6A4650080D7B
:1002A000F350486A476E040E4726000E482247C0A6
:1002B000E9FF040E4824EA6EEF6A1200010E456E53
:1002C00045500F0805E345C046F0D2DF452AF8D770
:1002D0001200226A216A3B6A3B520AE1036A3B50E0
:1002E000230FE96E000E0320EA6EEF6A3B2AF4D773
:1002F000186A010E196E176A12006A6A686A9F0E00
:100300006B6E3D0E696E6E6AD9DFE3DF160E706E9E
:1003100068A602D077DEFCD76D9864DF030E1C6EF2
:10032000F1EF05F0698468986D82F6EF05F0689C3E
:10033000FBEF05F040C01DF012001D6812003E6A80
:10034000215022103CE03E503F0839E31A5005E0AE
:10035000020A0EE0010A17E020D020C003F01F506F
:10036000F2CF40F0F29EE0DE40BEF28E3F6E15D03E
:1003700020C003F01F50F2CF40F0F29E11DF40BECC
:10038000F28E3F6E0AD020C003F01F50F2CF40F033
:10039000F29EEBDE40BEF28E3F6E1F2AD8B4202ABA
:1003A0002150D8B4220621063E503E2A036A500F3F
:1003B000E96E040E0320EA6E3FC0EFFFC1D7215063
:1003C000221004E13E50400801E0176A3EC040F0B0
:1003D000B1DF1200206A1F6A1A6A04011351010A70
:1003E000000105E0030A09E0010A0BE028D0226AB7
:1003F000120E216E030E1A6E24D0226A200E216E78
:1004000020D0020E1A6E036A04011251F2CF3DF0A1
:10041000F29E0001BBDE3DBEF28E036A1F6E03C07A
:1004200020F020C003F01F50F2CF3DF0F29EB8DE66
:100430003DBEF28E036A216E03C022F002D07DDF42
:100440000FD00401175308E1225203E12150165D39
:1004500003E2226A16C421F0010E176E00016FDF5D
:100460005EEF03F03D5204E1040E1C6E27DFD1D095
:10047000050E1C6E040E406E900E3F6E010E3E6E19
:100480003E500F08D8A0C5D03EC046F0F1DE416A0C
:10049000036A3E50F2CF45F0F29EFDDD45BEF28E7E
:1004A000FF0859E0040E416ED8903E34036AF2CF43
:1004B00045F0F29E18DE0900F5CF03F045BEF28E3E
:1004C000426E03C043F03E50080DF350466A456E3D
:1004D000010E4524016E000E4620036E01C0E9FFA7
:1004E000040E0324EA6E42C0EFFF3E50080DF350A5
:1004F000466A456E020E4524016E000E4620036ECC
:1005000001C0E9FF040E0324EA6E40C0ECFFED5287
:100510003FC0EFFFD8903E34036AF2CF45F0F29E21
:10052000E2DD0900F5CF03F045BEF28E3F26035011
:100530004022880E446E43A001D0448043A201D0E3
:1005400044823E50080DF350466AE96E040E46247C
:10055000EA6E44C0EFFF036A3E50F2CF45F0F29ED0
:100560009ADD45BEF28EFF0839E041823E50080D0B
:10057000F350466A456E040E4526000E4622020ED2
:100580004524016E000E4620036E01C0E9FF040EF3
:100590000324EA6E40C0ECFFED523FC0EFFFD8905D
:1005A0003E34036AF2CF45F0F29E85DD0900F5CFB7
:1005B00003F045BEF28E3F26035040223E50080D08
:1005C000F350466A456E040E4526000E462245C08D
:1005D000E9FF040E4624EA6E400EEF6E4150060815
:1005E00002E10E0E416E036A3E50F2CF45F0F29EDC
:1005F00052DD45BEF28E010801E04188036A3E509B
:10060000700FE96E0F0E0320EA6E41C0EFFF3E2A25
:1006100037D758EF03F004011151000A00010DE033
:10062000010A14E0020A1FE0060A29E0030A2EE08C
:100630000E0A2EE0010A32E040D019C050F4040145
:10064000516B020E406E000175DE38D00401122D90
:1006500007D0010E1916406A00016CDE03D00401B8
:1006600000016BDE2BD00401122D06D01982406AE6
:10067000000160DE03D0040100015FDE1FD0020E26
:10068000176E12C41EF0406A55DE18D0A3D616D0DD
:1006900018C050F4010E406E4DDE10D0040112510E
:1006A000010809E312C418F012C43DF00001DAD6C3
:1006B000406A40DE0401000101D03FDE5DEF04F03E
:1006C00018C03DF004011151000A000105E00A0ABA
:1006D0000BE0010A2BE03CD00401506B516B020E81
:1006E000406E000127DE35D03D521EE0010E3D5C1C
:1006F000036AF2CF3EF0F29E2FDD3EBEF28E016E17
:100700000401145DD8A002D000010ED0036A145178
:10071000230FE96E000E0320EA6EEFCF50F4010EB6
:10072000406E000107DE01D008DE13D03D520EE01E
:10073000036A04011451230FE96E000E0320EA6ED0
:1007400012C4EFFF406A0001F5DD01D0F6DD01D0F3
:10075000F4DD5DEF04F03E903DBE3E803D9E3EA048
:1007600011D03D50080DF350406A3F6E040E3F26F5
:10077000000E40223FC0E9FF040E4024EA6E880EBE
:10078000EF6E09D03D50080DF350406AE96E040E3B
:100790004024EA6EEF6A2DEF04F03E903DBE3E80AD
:1007A0003D9E3EA011D03D50080DF350406A3F6E73
:1007B000040E3F26000E40223FC0E9FF040E4024F5
:1007C000EA6E840EEF6E0AD03D50080DF350406A79
:1007D000E96E040E4024EA6E840EEF6E33EF04F0EF
:1007E0003E903DBE3E803D9E3EA011D03D50080D46
:1007F000F350416A406E040E4026000E412240C074
:10080000E9FF040E4124EA6EEFCF3FF00AD03D50DD
:10081000080DF350416AE96E040E4124EA6EEFCFF1
:100820003FF03FAE02D03FB402D0000E01D0010E27
:10083000016E3DEF04F014C447F0EFDC015228E0F4
:1008400004011151010A000105E0020A09E0030A4E
:100850000DE01DD014C43DF07ED7406A6BDD18D08A
:1008600014C43DF09AD7406A65DD12D00401506B84
:10087000516B14C43DF00001B3D7015204E0010EE6
:100880000401506F0001020E406E54DD01D055DDB1
:100890005DEF04F0176A040110517F0B000A00019C
:1008A00005E0010A05E0030A05E006D0B4D605D04C
:1008B00007D703D0C0D701D040DD84EF05F03D500D
:1008C000080DF350436AE96E040E4324EA6EEFCF3D
:1008D0003FF03E50020806E13FAC02D03E6A02D033
:1008E000010E3E6E3E50030813E1840E3F6E3D50F4
:1008F000080DF350436A426E040E4226000E432256
:1009000042C0E9FF040E4324EA6E840EEF6E07D066
:100910003E2C03D0C80E3F6E02D0880E3F6ED8909A
:100920003D34036AF2CF42F0F29E73EC00F009000E
:10093000F5CF03F042BEF28E406E03C041F03D5051
:10094000080DF350436A426E010E4224016E000E00
:100950004320036E01C0E9FF040E0324EA6E40C089
:10096000EFFF41A001D03F8041A201D03F823D5026
:10097000080DF350436AE96E040E4324EA6E3FC04B
:10098000EFFF1200036A4250700FE96E0F0E032052
:10099000EA6EEF5212E04250080DF350446A436E83
:1009A000040E4326000E442243C0E9FF040E4424F3
:1009B000EA6EEFCF45F045AE02D0000E01D0010E39
:1009C000016E12003DC042F0DDDF015263E03D5098
:1009D000080DF350436A426E040E4226000E432275
:1009E000010E4224016E000E4320036E01C0E9FF98
:1009F000040E0324EA6E3EC0EFFF4050020817E1E8
:100A00003D50080DF350436A426E040E4226000E1C
:100A1000432242C0E9FF040E4324EA6EEFCF41F0C7
:100A200041AC02D0406A02D0010E406E13D040505B
:100A3000040810E13D50080DF350436AE96E040EBE
:100A40004324EA6EEFCF41F041AC03D0010E406E7B
:100A500001D0406A402C03D0C80E416E02D0880EEF
:100A6000416E3FA001D041803FA201D041823D5064
:100A7000080DF350436A426E040E4226000E4322D4
:100A800042C0E9FF040E4324EA6E41C0EFFF010EAD
:100A9000016E02D0000E016E12003D5200E1120004
:100AA0003EC06EFF3E5203E0040E1C6E02D0020EEA
:100AB0001C6E60EF05F0186A176A1EC03EF0F0D792
:100AC0006CEF05F03D5208E1172C02D038DC04D061
:100AD00017500208D8B4EFD712001B303B6E3B32E0
:100AE0003B321F0E3B161B5241E1040100513C0BEF
:100AF0003C6E430E00173C5034081EE10451800B3D
:100B000001E0046B0001C6D66D981D3C05D03D6A1E
:100B1000030E3E6ED4DE0ED03D6A020E3E6ECFDE78
:100B20001D50FE0807E03D6A3F6A1DC03EF0040EFE
:100B3000406E48DF18D004013C50040815E13D6ABE
:100B40000001ABDF3D6A020E3E6EB9DE1D50FE08AD
:100B50000AE01D3C01D007D03D6A3F6A1DC03EF04F
:100B6000010E406E2FDF04011CD000011B50040851
:100B70000EE11D683D6AA6DF1D3C01D007D03D6A2D
:100B80003F6A1DC03EF0020E406E1CDF09D01BB450
:100B900004D03BC03DF081DF03D03BC03DF092DF8D
:100BA0000401000105EF06F0A19A1C52D8B433D01D
:100BB0006852D8B430D068A403D069B4EAEF00F02A
:100BC0006DB229D068AA03D069BA02EF01F068A219
:100BD00003D069B209EF01F068A003D069B07DEFDE
:100BE00001F068A803D069B892EF01F068AC03D0B7
:100BF00069BC97EF01F03A6A68A608D069A606D0EA
:100C00006CCF1BF002EC00F068D701D004D03A5052
:100C10003A2A0308F1E22AEF00F06D6A696A080EC9
:100C20006F6E94503009946E1C6A166AF2BE168E6E
:100C3000F29E69EC01F016BEF28E20EF06F0EDD7C1
:100C400045EF06F0166AF2BE168EF29E69EC01F0D0
:100C500016BEF28E6D6A140E6F6E696A6D86010E95
:100C60001C6E36EF06F06DB601D0ECD71C2C0BD005
:100C70006DBA09D0686A696AA08AC00EF212110EB4
:100C8000696E020E1C6E1200DAD7EDDF1C500208EE
:100C9000FCE14EEF07F0185202E10400FCD750EFE0
:100CA00007F01850016E5DEF07F0036A2950700FCE
:100CB000E96E0F0E0320EA6EEF520DE02950080D89
:100CC000F3502B6A2A6EE96E040E2B24EA6EEFCFE6
:100CD0002CF02CAE02D0000E01D0010E016E62EF9E
:100CE00007F02E50080DF350396A386E020E382482
:100CF000016E000E3920036E01C0E9FF040E0324CB
:100D0000EA6EECCF34F0ED52EFCF33F02E50080DF9
:100D1000F350396A386E010E3824016E000E392006
:100D2000036E01C0E9FF040E0324EA6E376AEFCFB9
:100D300036F02E50080DF350396AE96E040E39244E
:100D4000EA6EEFCF35F035A001D0378035A201D063
:100D500037823750325C08E303E13150365C04E2FD
:100D600037C032F036C031F030C0EAFF2FC0E9FFA3
:100D700034C0E2FF33C0E1FF32C002F031C001F005
:100D8000015202E0022A02D0025206E0E6CFEEFF54
:100D9000012EFCD7022EFAD731C001F032C002F08A
:100DA000DDEF06F029C02EF02BC030F02AC02FF066
:100DB0002DC032F02CC031F094D702C02DF001C00C
:100DC0002CF0166AF2BE168EF29E29C03DF0020E7D
:100DD0003E6E75DD16BEF28E2CC001F02DC002F005
:100DE0001200166AF2BE168EF29E29C042F0CADDCB
:100DF00016BEF28E015242E02950080DF350326ABD
:100E0000316E040E3126000E3222020E3124016EA4
:100E1000000E3220036E01C0E9FF040E0324EA6EC7
:100E2000ECCF30F0ED52EFCF2FF030C0EAFF2FC003
:100E3000E9FF2BC0E2FF2AC0E1FF2DC002F02CC069
:100E400001F0015202E0022A02D0025206E0E6CF8F
:100E5000EEFF012EFCD7022EFAD7166AF2BE168ECE
:100E6000F29E29C03DF02DC03FF02CC03EF02EC0B8
:100E700040F0A8DD16BEF28E015002D0000E016EC9
:100E8000B5EF07F0F86AD09E078EC150C00B0F096E
:100E9000C16E070EB46E939E8A8EF6D6E4DEFBD644
:100EA000939E8A9EC150C00B0E09C16EC050C00BEC
:100EB0000709C06EC09EC280F4D6015256E0010EF2
:100EC000296EF3D6015251E0010E296E2B6A240ED1
:100ED0002A6E2D6A010E2C6E65DF245202E1939872
:100EE0008A98242C02D093988A88010E296E2B6A46
:100EF000250E2A6E2D6A030E2C6E54DF252C02D08F
:100F000093908A802550020802E193928A822550AC
:100F1000040802E193948A842550040802E1939422
:100F20008A842550020802E193928A82252C02D0FD
:100F300093908A80000E016EC250C30B0110C26EE6
:100F4000060E006E002EFED70000C282C2B2FED78F
:100F5000C4CF28F0010E296E2B6A280E2A6E2D6A46
:0E0F6000010E2C6E020E2E6E3CD7A6D703009B
:020000040030CA
:0E00000024CE3E1E0087A1000FC00FE00F406F
:00000001FF
;PIC18F4550
;CRC=B682  CREATED="02-jul.-23 16:11"
